:0E00000030C0FECFFDCFFCCF33C2FACFF9CF18
:10000E00F8CFF7CF53C0F5CFF4CFF3CFF2CFF1CF78
:10001E00F0CFEFCFEECFEDCF0300000000000000D9
:10002E000000000023002C0101002D4E414E00491E
:10003E004E4600000100020026000A0004002800BF
:10004E0001006601320002006801340001006A01FD
:10005E0036000000F894EE27ECBBF1E0FBBFEBBFDF
:10006E00E5BF8DE0A2E0BB27ED938A95E9F780E02E
:10007E0094E0A0E6ED930197E9F7E2E4F0E08591D4
:10008E009591009761F0A591B59105901590BF01DE
:10009E00F00105900D920197E1F7FB01F0CFEFE52E
:1000AE00EDBFE4E0EEBFC0E6D1E017C10A921A92AE
:1000BE00FA926A937A938A939A93AA93BA93EA934B
:1000CE00FA93EFB7EA9322D026FC12C0A1D1ACD19D
:1000DE003AD18BD0CBD022FCFDD123FE03C0A0E9B8
:1000EE00B1E0E0D123FC02C022FE01C001C04FD21C
:1000FE00E991EFBFF991E991B991A99199918991FE
:10010E0079916991F9901990099018952497E0E0EA
:10011E00E883E0ECE983EFE7EA83E4E4EB83A3947E
:10012E00E4E6AE1608F44FC0AA24A7E0C9D06627AD
:10013E007727ADD236D2E0E0F0E068E872E4D5D2AF
:10014E0030D2E0E0F0E060E671E414D309F008F498
:10015E0002C0C39A01C0C39827D2E0E0F0E060E489
:10016E0071E408D309F008F402C0C49A01C0C4981F
:10017E001BD2E0E0F0E060E371E4FCD209F008F499
:10018E0002C0C59A01C0C5980FD2E0E0F0E060E26F
:10019E0071E4F0D2A8F419D0689426F8E0E22E2685
:1001AE0025FC02C0C39801C0C39A25FC02C0C498A6
:1001BE0001C0C49A25FC02C0C59801C0C59A03C0EF
:1001CE00E89426F8AD9A249608959098919892986E
:1001DE009398949895989698C698C798C098AD9805
:1001EE009798C298D4D1E2D108951A93A2E0E1D1A2
:1001FE001E2FA6E0DED18E2EE4E18E1690F488241A
:10020E005524A0916401B0916501B6D344F4A4E6DF
:10021E00B1E0ED91FD913197FE93EE9301C0979869
:10022E0001C09798E3E0E515F9F0989B09C0E2E06C
:10023E005E2EA12FB0E0E2E0F0E01CD31E2F02C034
:10024E00E1E05E2EA82DB7D0E82DF0E0C9D2C9D1DD
:10025E00EFEFF0E060E070E0C4D1E12FF0E0C0D24B
:10026E00DF01CB0152D18E2E19910895E1E0E515F3
:10027E0019F0E2E0E51599F4EAB5E81520F4EAB5CF
:10028E00EF5FEABDE150EAB58E1620F4EAB5E15013
:10029E00EABDEF5FE4E18E1608F488D102C086D184
:1002AE008824E0E0EB1510F4E81509F007C0979AE2
:1002BE00E8ECF0E0E0936401F0936501B82C08954A
:1002CE00AA93E881E7B98BE18A95F1F7369A349BC8
:1002DE00FECF349AE4B1F5B199C0EFEFE7BBE0E0A1
:1002EE00E8BBE0E6E4BBE0E0E5BBEFEFE1BBE0E05E
:1002FE00E2BBE4E0E3BFE0E0E2BFE1E8EFBDE4E053
:10030E00EEBDE0E0EDBDECBDE7BDE6BDEBBD4ED113
:10031E00E0E0E9BDE8BDE2BDE4E0E5BDE0E0E4BD5E
:10032E00E3BDE1E4E9BFE0E0E5BFEAB9E0E8E8B942
:10033E00E0E0E7B9E7E8E6B9E0E0E0BFEDB9E6BF37
:10034E007894FFCFFFCFE8949B9B689423F8E894B2
:10035E00989B689424F8A0E020FCA1E0E0E09C9932
:10036E00E1E046D199F0E8949C9B689422F822FE35
:10037E000DC0F1D0DF01E3E0F0E0ABD2AAE0B0E0D7
:10038E005CD235963CD1ECE2F1E03ED1A0E021FC0E
:10039E00A1E0E0E09999E1E02BD121F0999902C01A
:1003AE00CC24DD24E8949C99689420F8E8949999DB
:1003BE00689421F80895AA93A881A93210F0909A12
:1003CE0001C09098A881A73410F0919A01C091981D
:1003DE00A881A53610F0929A01C09298A881A338F0
:1003EE0010F0939A01C09398A881A13A10F0949AB4
:1003FE0001C09498A881AF3B10F0959A01C09598D2
:10040E00A881AD3D10F0969A01C096982196089558
:10041E007394E0E57E1608F408957724C09B02C01D
:10042E00C09801C0C09A08956394E8E06E1608F46F
:10043E00089566249394ECE0E91510F4E1E09E2E05
:10044E00E6E0E91538F4C698C79B02C0C79801C00C
:10045E00C79A06C0C798C69B02C0C69801C0C69A66
:10046E0008956A937A93EA93FA93EFB7EA93E09139
:10047E006001E4BDE0916001F09161016091620163
:10048E007091630175D211F4C29805C0C29B02C06F
:10049E00C29801C0C29AE991EFBFF991E9917991A1
:1004AE0069911895BA93AA93E881F981A4E2B4EF01
:1004BE00CED1A0E0B1E055D2EA1BFB0B6627772721
:1004CE00E0936001F09361016093620170936301A8
:1004DE00229608959ED0E6DFE0916601F0916701C5
:1004EE0098D0EA0FFB1F90D094D0A83EE3E0BE0751
:1004FE002CF48FD0AD32E1E0BE0734F4E09166010A
:10050E00F091670161D17BD0089526D287D0E8891A
:10051E00F9896A897B8953D17F936F93FF93EF9308
:10052E0082D006D24CD1AF91BF918F919F918AD13B
:10053E007F936F93FF93EF9371D0E885F9856A856A
:10054E007B853DD1AF91BF918F919F91BDD16BD0E6
:10055E0031D164960895E0916A01F0916B0160913A
:10056E006C0170916D01ADE6BEE486EC91E445D16F
:10057E00EE59F8486F4F7F4FE0936A01F0936B018D
:10058E0060936C0170936D01FB01FF770895E0E0BD
:10059E00E0936001E0936101E0936201E0936301F7
:1005AE000895D0D1CAD10895C8D10895E0E0EABD2A
:1005BE00089586DE66277727CAD1E0E0F0E060E096
:1005CE0070E0C5D1EFEFF3E060E070E0C0D1E0E0A5
:1005DE00F0E060E070E0BBD1AFEFB0E080E090E023
:1005EE0094CFB5D1E0E0F0E060E070E0B0D10895D6
:1005FE00B0E0F0E0E7FDFFEFEA17FB070895E093A8
:10060E006601F09367010895E0936801F093690124
:10061E000895A0916801B09169010895AC85BD85DA
:10062E008E859F850895AC81BD818E819F810895B1
:10063E00552342F4503811F4E0FF04C03196691F7F
:10064E00791F6BF050E8572711F45F933CC05F3F62
:10065E0031F0660F000C57956795752F08955F93CF
:10066E0000200AF03CC035C050E8192E1522880F24
:10067E00991F9527550F879550E8072E0522660F6F
:10068E00771F7527550F67950895689401C0E894F4
:10069E00309760407040B1F0002426F0772312F4BA
:1006AE00009496D0172E7EE1112032F07A95EE0F3F
:1006BE00FF1F661F111CF9CFEF2FF62F612D5F93D1
:1006CE00C1DF5F910895EE27FF27662777275F9199
:1006DE000895EFEFFFEF6FE77FEF5F910895EFEF74
:1006EE00FFEF6FE77FE75F9108955F93BDDF70388F
:1006FE0021F411200AF4EDCFF2CF903809F4E3CFB4
:10070E0001240894970B1BF4D4F30020F3CF792F18
:10071E001F932F933F934F93112411272227332793
:10072E004427552790E2AE17BF078607410730F0E2
:10073E00AE1BBF0B860B410B089401C08894551F4E
:10074E00221F331F111CAA1FBB1F881F441F9A95FF
:10075E0051F7F901612D4F913F912F911F91662312
:10076E0032F0550FEE1FFF1F661F7A9543F260DFC2
:10077E005F91089599239AF0772342F0971748F0E6
:10078E0029F4AE17BF07860720F031F098948894AD
:10079E00089598940894089518948894089577234A
:1007AE00C2F7971798F3A9F7EA17FB07680788F3BC
:1007BE0099F3ECCFEA0FFB1F681F791F0895EA1B10
:1007CE00FB0B680B790B0895F195E195F0400895B8
:1007DE00F09560957095E195FF4F6F4F7F4F08959F
:1007EE006F2F660F660B762F0895FA9FF02DEB9FF5
:1007FE00F00DEA9FE02DF10D08957A9F702D6B9FFD
:10080E00700DF89F700DE99F700D6A9F602D710D30
:10081E00FB9F600D711DE89F600D711D8827FA9F6B
:10082E00F02D610D781FEB9FF00D611D781FEA9F73
:10083E00E02DF10D681F781F089559D0D6DF0EF404
:10084E00C3DF089562D0D9DF0EF4C2DF089500240D
:10085E00112490E1AA0FBB1F001C111C0E1A1F0AB7
:10086E0018F40E0E1F1E01C0A1609A9599F7FD0196
:10087E00D00108953CD0EBDF0EF4A6DF08953F9330
:10088E004F935F93002411244427552730E2AA0F7B
:10089E00BB1F881F991F001C111C441F551F0E1AC9
:1008AE001F0A460B570B28F40E0E1F1E461F571F0E
:1008BE0001C0A1603A9559F7FD01BC01D001CA01F2
:1008CE005F914F913F91089520D0D9DF0EF480DFD4
:1008DE000895E894B7FF04C0A095B095119668945A
:1008EE00F7FD72DFB4DFFD010EF46EDF0895E894BC
:1008FE00F7FF02C069DF6894B7FF06C0A095B095F8
:10090E00119600F8039400FA0895E89477FF02C058
:10091E005FDF689497FF0BC00024A095B09580957B
:10092E0090951196801D901D00F8039400FA08957D
:10093E00E881F9816A817B810895A881B9818A81D4
:10094E009B810895E883F9836A837B8308957A9364
:10095E006A93FA93EA9308959A938A93BA93AA9311
:10096E0008951B2EBF2FF12D1A2EAE2FE12D0895B7
:10097E00309760407040089500240A160B060895C3
:00000001FF
