:0C00000019C0FECFFDCFFCCFFBCFFACF24
:10000C00F9CFF8CFF7CF3CC0F5CFF4CFF3CFF2CF89
:10001C00F1CFF0CFEFCFEECFEDCF0000000000001E
:10002C000600040026000000F894EE27ECBBF1E07B
:10003C00FBBFEBBFE5BF8DE0A2E0BB27ED938A953C
:10004C00E9F780E094E0A0E6ED930197E9F7ECE2A4
:10005C00F0E085919591009761F0A591B59105908F
:10006C001590BF01F00105900D920197E1F7FB018E
:10007C00F0CFEFE5EDBFE4E0EEBFC0E6D1E02DC080
:10008C000A921A92FA926A937A938A939A93AA93FF
:10009C00BA93EA93FA93EFB7EA937394E4E67E1675
:1000AC0010F077240ED0E991EFBFF991E991B99155
:1000BC00A9919991899179916991F99019900990E7
:1000CC0018956394E5E06E1608F408956624C09BB9
:1000DC0002C0C09801C0C09A0895EFEFE7BBE0E002
:1000EC00E8BBE0E6E4BBE0E0E5BBEFEFE1BBE0E062
:1000FC00E2BBE5E0E3BFE0E0E2BFE1E0EFBDE5E05D
:10010C00EEBDE0E0EDBDECBDE7BDE6BDEBBDEABD8F
:10011C00E9BDE8BDE2BDE5BDE4BDE3BDE1E0E9BF9D
:10012C00E0E0E5BFEAB9E0E8E8B9E0E0E7B9E7E824
:10013C00E6B9E0E0E0BFEDB9E6BF7894FFCFFFCFC2
:00000001FF
