:0200000012C02C
:10000200FECFFDCFFCCFFBCFFACFF9CFF8CFF7CFA2
:1000120023C0F5CFF4CFF3CFF2CFF1CFF0CFEFCFB4
:10002200EECFEDCFF894EE27ECBBF1E0FBBFEBBFD8
:10003200E5BF8DE0A2E0BB27ED938A95E9F780E06A
:1000420094E0A0E6ED930197E9F7EFE5EDBFE4E078
:10005200EEBFC0E6D1E001C01895EFEFE7BBE0E0EC
:10006200E8BBE0E6E4BBE0E0E5BBEFEFE1BBE0E0EC
:10007200E2BBE5E0E3BFE0E0E2BFE1E0EFBDE5E0E7
:10008200EEBDE0E0EDBDECBDE7BDE6BDEBBDEABD1A
:10009200E9BDE8BDE2BDE5BDE4BDE3BDE1E0E9BF28
:1000A200E0E0E5BFEAB9E0E8E8B9E0E0E7B9E7E8AF
:1000B200E6B9E0E0E0BFEDB9E6BF7894FFCFFFCF4D
:00000001FF
